:020000040000FA
:020000000328D3
:040002000034003492
:0A00060003138316870187160717FE
:10001000871785010313831285010514871B3F2869
:10002000871A1520071B2A200E288711071287140C
:1000300007115120871007120715871151208710CB
:10004000071187150712512007118711871007160E
:1000500051200800071187100716871151208710BB
:1000600007128715071151200712871107158710EE
:100070005120871107118714071251200800051914
:10008000452885184D28051849280514851005119F
:100090000E280514851405110E2805148514051560
:1000A0000E280518FF308518FF3005190130A5000E
:1000B0005A2808000518FF3085180130051901304D
:1000C000A600A50303195928A60303195A28642872
:0200D00068289E
:02400E00FB3F76
:00000001FF
