:020000040000FA
:020000000328D3
:040002000034003492
:0A000600031383168601FF30870004
:1000100083120313A0010718D2288718D9280719BB
:10002000E2288719E928071AF428871AFB28071BF2
:100030000429871B0B2920182C28A01833282019E5
:100040003D28A0194528201A5228A01A5928201BFB
:100050006328A01B6B280B2825088600A50DA40388
:10006000031916297828240886008128A50D25085B
:100070008600A30303191A298A2825088600A50DDE
:10008000A50DA30303191F2993282408250486001E
:100090009C28A40DA20303192429A50DA303031969
:1000A00028290B2825088600A50CA40303192C2950
:1000B000A52824088600AE2825088600A50CA303E1
:1000C00003193029B72825088600A50CA50CA30321
:1000D00003193529C028240825048600C928A40C42
:1000E000A20303193A29A50CA30303193E290B28DF
:1000F000FF30A700A60303190B28A70303197828CC
:100100007D28FF30A700A60303193628A70303198B
:1001100081288628FF30A700A60303190B28A70310
:1001200003198A288F28FF30A700A60303190B287C
:10013000A703031993289828FF30A700A6030319E3
:100140004928A70303199C28A128FF30A700A6036C
:1001500003190B28A7030319A528AA28FF30A70015
:10016000A60303195C28A7030319AE28B328FF30A0
:10017000A700A60303190B28A7030319B728BC2857
:10018000FF30A700A60303190B28A7030319C028F3
:10019000C528FF30A700A60303196F28A70303197A
:1001A000C928CE28A00120140130A5000830A400E1
:1001B0001B28A001A0140130A5000130A4000730C5
:1001C000A3001B28A00120150130A5000430A300C6
:1001D0001B28A001A0150130A4000230A5000830A2
:1001E000A2000730A3001B28A00120168030A50024
:1001F0000830A4001B28A001A0168030A500013003
:10020000A4000730A3001B28A00120178030A50000
:100210000430A3001B28A001A0178030A4004030A8
:10022000A5000830A2000730A3001B28A50D083048
:10023000A4003228A50DA50D0730A3003C28A50D6C
:10024000A50D0830A3004428A40D0830A2004D28B5
:10025000A50D0830A3005128A50C0830A40058288B
:10026000A50CA50C0730A3006228A50CA50C08302E
:10027000A3006A28A40C0830A2007328A50C08303B
:06028000A30077284229CB
:02400E00FB3F76
:00000001FF
